:100000000C9430000C944D000C944D000C944D0059
:100010000C94C0000C9453010C944D000C944D00B2
:100020000C944D000C944D000C944D000C944D001C
:100030000C944D000C944D000C944D000C944D000C
:100040000C944D000C944D000C944D000C944D00FC
:100050000C944D006364696E6F70737578585B0023
:1000600011241FBECFE5D8E0DEBFCDBF10E0A0E673
:10007000B0E0E0E3F4E102C005900D92A63AB107CA
:10008000D9F720E0A6EAB0E001C01D92AC3CB2076F
:10009000E1F70E947C010C94160A0C9400005D9B11
:1000A000FECF8CB980E090E008955F9BFECF8CB1CD
:1000B0000895AF92BF92CF92DF92EF92FF920F938B
:1000C0001F93CF93DF931F92CDB7DEB77C016C01F6
:1000D000A12CB12C062F10E049830E9455009FEF00
:1000E000A91AB90AF60181936F014981841311C0DD
:1000F000EA0CFB1CF701319710820F90DF91CF9132
:100100001F910F91FF90EF90DF90CF90BF90AF9035
:1001100008958A3069F3A016B106F4F2E9CF8AB1E6
:1001200088618AB98EE080BD10BC83E389B960E044
:1001300070E08FE490E00E947B028FB780688FBFF1
:100140000895DC01FB0140E050E080E090E0319751
:1001500046175707A4F49D01042E02C03695279533
:100160000A94E2F7217033270E2E02C0220F331FAC
:100170000A94E2F7820F931F4F5F5F4FE8CF089515
:100180001F920F920FB60F9211242F933F934F930C
:100190005F936F937F938F939F93AF93BF93EF93EF
:1001A000FF938091A8009091A9002091A800309120
:1001B000A90008974CF481E090E001C0880F2A95CF
:1001C000EAF7809585BB0EC048B32450310981E021
:1001D00090E002C0880F991F2A95E2F780959095CC
:1001E000842388BBE091A800F091A900EE0FFF1FC7
:1001F000E655FF4F8081918164E070E08F70992710
:100200000E94A10098B3892B88BBE091A800F091CF
:10021000A900EE0FFF1FE655FF4F8081918124E07A
:10022000969587952A95E1F78BBB8091A6009091D2
:10023000A70001969093A7008093A6008091A60046
:100240009091A7000297F4F08FEF85BB88B3806F81
:1002500088BB88B3807F88BB1BBA1092A70010921E
:10026000A6008091A8009091A9009C012F5F3F4FAC
:100270003093A9002093A8000C9724F01092A900B5
:100280001092A800FF91EF91BF91AF919F918F9134
:100290007F916F915F914F913F912F910F900FBE82
:1002A0000F901F9018951F920F920FB60F92112466
:1002B0008F938FEF85BB88B3806F88BB8F910F9032
:1002C0000FBE0F901F90189580E090E0FC01EE0F9C
:1002D000FF1FE655FF4F1182108201968C30910569
:1002E000A9F7089521E030E0A90102C0440F551F8D
:1002F0008A95E2F7CA010895CF93DF93CDB7DEB7B1
:10030000CA58D1090FB6F894DEBF0FBECDBF8FEF2C
:1003100084BB85BB87BB98B3906F98BB98B3907F25
:1003200098BB8ABB1BBA85B58A6485BD89B7806CCA
:1003300089BF13BC78940E948F0060E070E08FE466
:1003400090E00E947B0286E690E09F938F930E944C
:10035000C6020F900F90CE0101967C018E010B59C1
:100360001F4FF8017696EF96FFAFEEAFEF978858E4
:100370009F4FC158DF4F99838883CF57D040349720
:10038000CF57DF4FF983E883C158D0400497CD574A
:10039000DF4F99838883C358D0403497CB57DF4FC2
:1003A000F983E883C558D0400497C957DF4F998334
:1003B0008883C758D0403497C757DF4FF983E88305
:1003C000C958D0401801F8E02F0E311C680186E0B2
:1003D000C80ED11C580194E0A90EB11C4801E2E0FE
:1003E0008E0E911C4AE064E6C7010E94590088E124
:1003F000F80111928A95E9F7EF96FFADEF97FF9319
:10040000EE968FADEE978F93C058DF4F9881C0580E
:10041000D0409F93C158DF4FE881CF57D040EF9332
:10042000CE57DF4FF881C258D040FF93CF57DF4FF0
:100430008881C158D0408F93CC57DF4F9881C458E2
:10044000D0409F93CD57DF4FE881C358D040EF9302
:10045000CA57DF4FF881C658D040FF93CB57DF4FC4
:100460008881C558D0408F93C857DF4F9881C858AE
:10047000D0409F93C957DF4FE881C758D040EF93D2
:10048000C657DF4FF881CA58D040FF93C757DF4F98
:100490008881C958D0408F933F922F92DF92CF929C
:1004A000BF92AF929F928F921F930F9381E890E03B
:1004B0009F938F93FF92EF920E94DC0238010FB658
:1004C000F894DEBF0FBECDBF3BE0432E512C6CE055
:1004D00070E0F301819191913F010E94A100F2012E
:1004E000EE0FFF1FE655FF4F91838083F1E04F1A17
:1004F000510868F777CF0F931F93CF93DF9300973F
:1005000031F46115710519F480E090E03AC08B0177
:10051000EC016EE070E081E090E00E947507FC0164
:10052000892B91F380E883830115110571F01387FE
:10053000028781E883838091C2009091C300892B58
:1005400021F4F093C300E093C2002097C9F0D18753
:10055000C0878381826083838091C4009091C500AD
:10056000892B71F4F093C500E093C4008091C6001C
:100570009091C700892B21F4F093C700E093C60047
:10058000CF01DF91CF911F910F910895A0E0B0E0CE
:10059000ECECF2E00C94EF09AE014B5F5F4FFA0117
:1005A00061917191AF018091C4009091C5000E944A
:1005B000F502E2E00C940B0AAEE0B0E0E2EEF2E00D
:1005C0000C94EF0985E08C838B899C899A838983BD
:1005D000AE01495E5F4F6D897E89CE0101960E9412
:1005E00047062E96E2E00C940B0AACE0B0E0EBEF8D
:1005F000F2E00C94DF097C016B018A01FC01178297
:100600001682838181FFBDC1CE0101964C01F701A5
:100610009381F60193FD859193FF81916F0188236A
:1006200009F4ABC1853239F493FD859193FF819133
:100630006F01853229F4B70190E00E942D09E7CFC0
:10064000512C312C20E02032A0F48B3269F030F4B0
:10065000803259F0833269F420612CC08D3239F038
:10066000803339F4216026C02260246023C02860D2
:1006700021C027FD27C030ED380F3A3078F426FF2F
:1006800006C0FAE05F9E300D1124532E13C08AE09D
:10069000389E300D1124332E20620CC08E3221F48E
:1006A00026FD6BC1206406C08C3611F4206802C0A0
:1006B000883641F4F60193FD859193FF81916F0196
:1006C0008111C1CF982F9F7D9554933028F40C5FF2
:1006D0001F4FFFE3F9830DC0833631F0833771F08C
:1006E000833509F05BC022C0F801808189830E5FE9
:1006F0001F4F44244394512C540115C03801F2E09B
:100700006F0E711CF801A080B18026FF03C0652D1B
:1007100070E002C06FEF7FEFC5012C870E94E408F4
:100720002C0183012C852F77222E17C03801F2E08F
:100730006F0E711CF801A080B18026FF03C0652DEB
:1007400070E002C06FEF7FEFC5012C870E94D208D6
:100750002C012C852068222E830123FC1BC0832DB5
:1007600090E048165906B0F4B70180E290E00E948C
:100770002D093A94F4CFF50127FC859127FE81914C
:100780005F01B70190E00E942D0931103A94F1E029
:100790004F1A51084114510471F7E5C0843611F025
:1007A000893639F5F80127FF07C0608171818281A0
:1007B00093810C5F1F4F08C060817181072E000C70
:1007C000880B990B0E5F1F4F2F76722E97FF09C073
:1007D00090958095709561957F4F8F4F9F4F2068C2
:1007E000722E2AE030E0A4010E947E09A82EA818EB
:1007F00044C0853729F42F7EB22E2AE030E025C090
:10080000F22FF97FBF2E8F36C1F018F4883579F0BA
:10081000B4C0803719F0883721F0AFC02F2F206186
:10082000B22EB4FE0DC08B2D8460B82E09C024FFFB
:100830000AC09F2F9660B92E06C028E030E005C0A0
:1008400020E130E002C020E132E0F801B7FE07C04D
:1008500060817181828193810C5F1F4F06C060812E
:10086000718180E090E00E5F1F4FA4010E947E091D
:10087000A82EA818FB2DFF777F2E76FE0BC0372DF4
:100880003E7FA51450F474FE0AC072FC08C0372DD8
:100890003E7E05C0BA2C372D03C0BA2C01C0B52C42
:1008A00034FF0DC0FE01EA0DF11D8081803311F48B
:1008B000397E09C032FF06C0B394B39404C0832FBD
:1008C000867809F0B39433FD13C030FF06C05A2C6C
:1008D000B31418F4530C5B18B32CB31468F4B701B9
:1008E00080E290E03C870E942D09B3943C85F5CFCF
:1008F000B31410F43B1801C0312C34FF12C0B701FF
:1009000080E390E03C870E942D093C8532FF17C0B0
:1009100031FD03C088E790E002C088E590E0B701B0
:100920000CC0832F867859F031FF02C08BE201C0E2
:1009300080E237FD8DE2B70190E00E942D09A514F9
:1009400038F4B70180E390E00E942D095A94F7CF64
:10095000AA94F401EA0DF11D8081B70190E00E9494
:100960002D09A110F5CF332009F451CEB70180E253
:1009700090E00E942D093A94F6CFF7018681978185
:1009800002C08FEF9FEF2C96E2E10C94FB0920FD53
:1009900009C0FC0123FD05C022FF02C073836283EE
:1009A00051834083089544FD10C046FD10C0DB0113
:1009B000FC01AA0FBB1FEE1FFF1F1094D1F76A0F97
:1009C0007B1F8E1F9F1F31E003C033E001C034E066
:1009D000660F771F881F991F3150D1F7620F711D65
:1009E000811D911D08950F931F93CF93DF938C0169
:1009F000C8010E94EF08EC0197FD08C00E94BE08E4
:100A0000892BB1F7B801CE010E946509CE01DF91B3
:100A1000CF911F910F910895A1E0B0E0E2E1F5E0E0
:100A20000C94E5098C01C62E7A0129830E94EF08F7
:100A3000AC01552729814B32510521F04D3251052A
:100A400069F42068CA94C11002C080E076C0C80171
:100A500029830E94EF08298197FDF7CF322F3D7F30
:100A6000D32E322F307349F5803339F5BB24BA9435
:100A7000BC0C09F44EC0C80129830E94EF082981EB
:100A800097FD47C0382F3F7D383569F48D2D82643E
:100A9000D82ECA94CA94CC20E1F1C8010E94EF0874
:100AA00097FF0BC036C026FF04C02D2D2260D22E2A
:100AB00003C03D2D3261D32ECB2C812C912C5401BF
:100AC00020ED280F283080F0D4FE04C0B8010E9429
:100AD00065091CC02A3040F0D6FEF8CF2F7D3FEECE
:100AE000320F363098F727504D2DC501B4010E94C2
:100AF000D3044B015C018D2D8260D82ECA94CC208A
:100B000059F0C8010E94EF0897FFDACFD1FC04C06A
:100B10009CCF812C912C5401D7FE08C0B094A09496
:100B200090948094811C911CA11CB11C2D2DB501A9
:100B3000A401C7010E94C70481E02196ECE00C9457
:100B4000010AA1E2B0E0E7EAF5E00C94E3095C01F8
:100B50007A01CE0101966C0180E2F60111928A952C
:100B6000E9F7F501838040E050E0912C712C70E0B2
:100B7000A1E0B0E0F90183FC859183FE81918F01B2
:100B8000982F9F01811103C080E090E07CC08E35DA
:100B900019F44115510549F1E72FF0E0E417F50785
:100BA0003CF48D3559F18D3219F4772001F103C0F1
:100BB000711001C0982E892F86958695869586019D
:100BC000080F111D892F87703D0101C0660C8A95A1
:100BD000EAF7F801808186298083991559F09915E3
:100BE00010F49F5FE8CF9150E6CF71E004C0772406
:100BF000739401C0712C4F5F5F4FBCCF772019F009
:100C00008E8180628E83711103C09924939416C0E3
:100C1000F6019E012F5D3F4F808180958193E21701
:100C2000F307D1F7F2CFE114F10429F0F701808343
:100C3000C70101967C016150912CF9F0C50169A3AF
:100C40000E94EF0869A197FD16C0282F26952695CA
:100C50002695F601E20FF11D208130E0AC014770CE
:100C6000552702C0359527954A95E2F720FDDBCF41
:100C7000B5010E946509911087CFE114F10411F0CC
:100C8000F7011082C801A196EEE00C94FF094F9283
:100C90005F927F928F929F92AF92BF92CF92DF929C
:100CA000EF92FF920F931F93CF93DF931F92CDB7D5
:100CB000DEB76C012B015A01FC0117821682712CE0
:100CC000F601F380F201F3FC8591F3FE8191382F58
:100CD0002F01882309F4F3C090E039830E94BE08F5
:100CE0003981892B21F0C6010E94F304E9CF353206
:100CF00041F4F201F3FC3591F3FE31912F013532CD
:100D000069F4C60139830E94EF08398197FDD5C087
:100D10003817B1F2B6010E946509D1C03A3239F4F0
:100D2000F3FC3591F3FE31912F0151E001C050E009
:100D3000420110E020ED230F2A3090F45260612F21
:100D400070E080E090E040E259830E94D304162FC7
:100D5000F401F3FC3591F3FE31914F015981EACF53
:100D6000052F232F240151FF03C0111102C0A7C07A
:100D70001FEF383619F03C3659F011C0F401F3FC7E
:100D80002591F3FE21912F01283649F4052F0860A3
:100D90000460F201F3FC2591F3FE21912F0122233F
:100DA00009F48DC0622F70E084E590E029830E94F1
:100DB000C7082981892B09F482C000FD07C0F5010D
:100DC000E080F180C50102965C0102C0E12CF12CAB
:100DD0002E3651F4F6014681578160E070E0202FF5
:100DE000C7010E94C7046CCF233691F401FF11E0C4
:100DF000C6010E94EF0897FD60C0E114F10429F0DC
:100E0000F7018083C70101967C01115089F751C019
:100E10002B3559F49201A701612FC6010E94A1054B
:100E20002C01892B09F045C03FC0C60129830E94CF
:100E3000F304298197FD41C02F3659F128F4243657
:100E400031F1293649F127C0233769F02537F9F008
:100E500022C0E114F10429F0F7018082C701019654
:100E60007C01115071F0C6010E94EF084C0197FD02
:100E700008C00E94BE08892B61F3B601C4010E941C
:100E80006509E114F104A9F0F701108212C00062B3
:100E900003C0006101C00064202FA701612FC601BB
:100EA0000E940C05811105C0F6018381807329F42D
:100EB00006C000FD05CF739403CF772019F0872D6E
:100EC00090E002C08FEF9FEF0F90DF91CF911F91C5
:100ED0000F91FF90EF90DF90CF90BF90AF909F90D9
:100EE0008F907F905F904F9008950F931F93CF93B3
:100EF000DF93869F8001879F100D969F100D112410
:100F0000C8010E949107EC01009729F0A80160E058
:100F100070E00E94DD08CE01DF91CF911F910F910B
:100F20000895CF93DF938230910510F482E090E032
:100F3000E091CA00F091CB0020E030E0C0E0D0E0CA
:100F4000309711F14081518148175907C0F0481777
:100F5000590761F482819381209719F09B838A83DA
:100F60002BC09093CB008093CA0026C02115310579
:100F700019F04217530718F49A01BE01DF01EF017F
:100F80000280F381E02DDCCF2115310509F1281B0A
:100F9000390B2430310590F412968D919C91139762
:100FA0006115710521F0FB019383828304C0909346
:100FB000CB008093CA00FD01329644C0FD01E20FD0
:100FC000F31F81939193225031092D933C933AC0A2
:100FD0002091C8003091C900232B41F42091620078
:100FE000309163003093C9002093C80020916000C5
:100FF000309161002115310541F42DB73EB7409184
:10100000640050916500241B350BE091C800F091FD
:10101000C900E217F307A0F42E1B3F0B281739076E
:1010200078F0AC014E5F5F4F2417350748F04E0F44
:101030005F1F5093C9004093C8008193919302C0F1
:10104000E0E0F0E0CF01DF91CF9108950F931F937F
:10105000CF93DF93009709F48CC0FC013297138281
:1010600012820091CA001091CB000115110581F484
:1010700020813181820F931F2091C8003091C900D7
:101080002817390779F5F093C900E093C80071C0BB
:10109000D80140E050E0AE17BF0750F412962D91F2
:1010A0003C911397AD012115310509F1D901F3CF19
:1010B0009D01DA013383228360817181860F971F3E
:1010C0008217930769F4EC0128813981260F371FB5
:1010D0002E5F3F4F318320838A819B81938382835C
:1010E000452B29F4F093CB00E093CA0042C013963D
:1010F000FC93EE931297ED01499159919E01240FB3
:10110000351FE217F30771F480819181840F951FD9
:10111000029611969C938E938281938113969C9351
:101120008E931297E0E0F0E0D80112968D919C9199
:101130001397009719F0F8018C01F6CF8D919C91CF
:1011400098012E5F3F4F820F931F2091C80030916E
:10115000C9002817390769F4309729F41092CB0099
:101160001092CA0002C0138212821093C900009329
:10117000C800DF91CF911F910F91089591110C94A8
:10118000DC09803219F089508550C8F70895FC01B8
:101190000590061621F00020D9F7C0010895319777
:1011A000CF010895FC010590615070400110D8F7FF
:1011B000809590958E0F9F1F0895DC0101C06D935F
:1011C00041505040E0F70895FC016150704001909B
:1011D0000110D8F7809590958E0F9F1F0895CF939B
:1011E000DF93EC012B8120FF33C026FF0AC02F7B49
:1011F0002B838E819F8101969F838E838A8190E0CD
:1012000029C022FF0FC0E881F9818081082E000CDF
:10121000990B009719F420622B831AC03196F98339
:10122000E8830EC0EA85FB85099597FF09C02B81ED
:10123000019611F080E201C080E1822B8B8308C00F
:101240002E813F812F5F3F4F3F832E83992702C01E
:101250008FEF9FEFDF91CF9108950F931F93CF935F
:10126000DF93FB01238121FD03C08FEF9FEF28C097
:1012700022FF16C0468157812481358142175307CA
:1012800044F4A081B1819D012F5F3F4F31832083C2
:101290008C93268137812F5F3F4F3783268310C081
:1012A000EB01092F182F0084F185E02D0995892B7A
:1012B000E1F68E819F8101969F838E83812F902FEF
:1012C000DF91CF911F910F910895FB01238120FFA2
:1012D00012C026FD10C08F3F3FEF930761F082835D
:1012E0002F7D206423832681378121503109378364
:1012F0002683992708958FEF9FEF0895FA01AA2773
:10130000283051F1203181F1E8946F936E7F6E5F48
:101310007F4F8F4F9F4FAF4FB1E03ED0B4E03CD0F6
:10132000670F781F891F9A1FA11D680F791F8A1FD9
:10133000911DA11D6A0F711D811D911DA11D20D040
:1013400009F468943F912AE0269F11243019305DFA
:101350003193DEF6CF010895462F4770405D4193EB
:10136000B3E00FD0C9F7F6CF462F4F70405D4A3338
:1013700018F0495D31FD4052419302D0A9F7EACF00
:10138000B4E0A6959795879577956795BA95C9F72F
:1013900000976105710508959B01AC010A2E069422
:1013A0005795479537952795BA95C9F7620F731FDB
:1013B000841F951FA01D08959927882708952F92AF
:1013C0003F924F925F926F927F928F929F92AF92D5
:1013D000BF92CF92DF92EF92FF920F931F93CF9322
:1013E000DF93CDB7DEB7CA1BDB0B0FB6F894DEBFB9
:1013F0000FBECDBF09942A88398848885F846E84DF
:101400007D848C849B84AA84B984C884DF80EE8028
:10141000FD800C811B81AA81B981CE0FD11D0FB631
:10142000F894DEBF0FBECDBFED010895F894FFCF55
:101430000000CC002000426C7565746F6F746820EA
:10144000657175616C697A65722076312E300A0D8E
:10145000002564202564202564202564202564203F
:10146000256420256420256420256420256420250A
:0614700064202564000069
:00000001FF
