:100000000C9436000C9453000C9453000C94530041
:100010000C9482070C9412080C9453000C94530017
:100020000C9453000C9453000C9453000C94530004
:100030000C9453000C9453000C9453000C945300F4
:100040000C9453000C9453000C9453000C945300E4
:100050000C9453002107250729072E07330738077B
:100060003D07420747074C075107550711241FBE9C
:10007000CFE5D8E0DEBFCDBF13E0A0E6B0E0E6ED0F
:10008000F1E102C005900D92A036B107D9F723E047
:10009000A0E6B3E001C01D92AC37B207E1F70E94C1
:1000A00079080C94E9080C94000080E090E0FC01D1
:1000B000EE0FFF1FEC59FC4F1182108201968C301D
:1000C0009105A9F70895009769F020E030E0EFE985
:1000D000FFE03197F1F700C000002F5F3F4F281776
:1000E0003907A9F70895AF92BF92CF92DF92EF92AE
:1000F000FF920F931F93CF93DF937C0169018B01D4
:1001000001501048000F111F0E0D1F1DEA015B0169
:1001100081E0A81AB1082097B9F0F7018081918198
:1001200040E050E04A155B053CF422813381219385
:1001300031934F5F5F4FF6CFF80191838083C60103
:100140000E9463002197E7CFDF91CF911F910F911C
:10015000FF90EF90DF90CF90BF90AF90089521E097
:1001600030E0A90102C0440F551F8A95E2F7CA0189
:100170000895A0E5B1E061E070E0ED91FC91119788
:10018000EE0FFF1FEC59FC4F20813181AB0112961D
:100190000C90129702C0440F551F0A94E2F7240FE7
:1001A000351F31832083149621E0A03CB20729F744
:1001B0000C946300CF93DF93EC010E94B9000E947E
:1001C0005500CE01DF91CF910C946300BF92CF9286
:1001D000DF92EF92FF920F931F93CF93DF937C01F7
:1001E000B62E00E511E0CCEBD1E0CC24C394D12CA9
:1001F00081E0B81219C0D801ED91FC911197C601A8
:1002000012960C9002C0880F991F0A94E2F7EE0F25
:10021000FF1FEC59FC4F91838083C7010E9463004C
:10022000D801ED91FC9116C0B1101AC0E881F98196
:10023000C6010A8002C0880F991F0A94E2F7EE0FE8
:10024000FF1FEC59FC4F91838083C7010E9463001C
:10025000E881F981EE0FFF1FEC59FC4F11821082EB
:100260000C5F1F4F2497B1E0CC34DB0709F6DF9118
:10027000CF911F910F91FF90EF90DF90CF90BF90A3
:100280000895BF92CF92DF92EF92FF920F931F9348
:10029000CF93DF93B62E7C01F594E79400E511E04F
:1002A000CCEBD1E0CC24C394D12C81E0B81219C09E
:1002B000D801ED91FC911197C60112960C9002C0E5
:1002C000880F991F0A94E2F7EE0FFF1FEC59FC4FBD
:1002D00091838083C7010E946300D801ED91FC9156
:1002E00016C0B1101DC0E881F981C6010A8002C0A4
:1002F000880F991F0A94E2F7EE0FFF1FEC59FC4F8D
:1003000091838083C7010E946300E881F981EE0F29
:10031000FF1FEC59FC4F11821082C7010E9463003D
:100320000C5F1F4F2497B1E0CC34DB0709F0BDCF41
:10033000DF91CF911F910F91FF90EF90DF90CF90C1
:10034000BF900895BF92CF92DF92EF92FF920F93EA
:100350001F93CF93DF938C01B62E20E5C22E21E0B0
:10036000D22ECCEBD1E0EE24E394F12C81E0B81254
:1003700013C0D601ED91FC911197EE0FFF1FEC59C0
:10038000FC4F80819181970112960C9002C0220F40
:10039000331F0A94E2F711C0B11016C0E881F98149
:1003A000EE0FFF1FEC59FC4F8081918197010A806D
:1003B00002C0220F331F0A94E2F7820F931F91832A
:1003C0008083C8010E946300B4E0CB0ED11C249747
:1003D00081E0CC34D80751F6DF91CF911F910F9176
:1003E000FF90EF90DF90CF90BF9008952F923F92B3
:1003F0005F926F927F928F929F92AF92BF92CF92B5
:10040000DF92EF92FF920F931F93CF93DF931F9290
:10041000CDB7DEB797FD01968C011595079534E8A9
:10042000C32E31E0D32E40E5A42E41E0B42E5EE091
:10043000652E712C7EE0272E312C512C852D90E0DD
:10044000861597050CF0E1C0613009F062C09C018F
:10045000220F331F220F331FA901405B5E4F4A0159
:10046000DA01ED91FC911197EE0FFF1FEC59FC4F53
:100470002081318141E050E012960C9002C0440F7F
:10048000551F0A94E2F7240F351F318320837BE147
:10049000E72EF12CE81AF90AC701880F991F880F77
:1004A000991F9C01205B3E4F7901D901ED91FC9190
:1004B0001197EE0FFF1FEC59FC4F8081918121E0D5
:1004C00030E012960C9002C0220F331F0A94E2F71C
:1004D000820F931F91838083C80169830E94630008
:1004E000D401ED91FC911197EE0FFF1FEC59FC4FD9
:1004F0008081918121E030E012960C9002C0220FA1
:10050000331F0A94E2F7821B930B91838083D701F8
:1005100060C0611178C07101E81AF90A9701220FD1
:10052000331F220F331FA901405B5E4F7A01DA01AE
:10053000ED91FC911197EE0FFF1FEC59FC4F2081BC
:10054000318141E050E012960C9002C0440F551FDB
:100550000A94E2F7240F351F31832083880F991FF7
:10056000880F991F9C0128573E4F4901D901ED91F1
:10057000FC911197EE0FFF1FEC59FC4F8081918188
:1005800021E030E012960C9002C0220F331F0A9433
:10059000E2F7820F931F91838083C80169830E94D1
:1005A0006300D701ED91FC911197EE0FFF1FEC59FD
:1005B000FC4F8081918121E030E012960C9002C0C6
:1005C000220F331F0A94E2F7821B930B91838083DF
:1005D000D401ED91FC911197EE0FFF1FEC59FC4FE8
:1005E0008081918121E030E012960C9002C0220FB0
:1005F000331F0A94E2F7821B930B91838083C80117
:100600000E9463006981539419CF613061F5D6016E
:10061000ED91FC911197EE0FFF1FEC59FC4F80817B
:10062000918121E030E012960C9002C0220F331F1E
:100630000A94E2F7820F931F91838083D501D896A5
:10064000ED91FC91D997EE0FFF1FEC59FC4F808183
:10065000918121E030E0DA960C9002C0220F331F26
:100660000A94E2F72FC0611131C0D5011496ED91C3
:10067000FC911597EE0FFF1FEC59FC4F8081918183
:1006800021E030E016960C9002C0220F331F0A942E
:10069000E2F7820F931F91838083D601D896ED9164
:1006A000FC91D997EE0FFF1FEC59FC4F808191818F
:1006B000AE58BF4F21E030E00C9002C0220F331F34
:1006C0000A94E2F7820F931F91838083B1E06B1A43
:1006D000710824E0C21AD10834E0A30EB11C6114E1
:1006E000710409F0AACE0F90DF91CF911F910F9165
:1006F000FF90EF90DF90CF90BF90AF909F908F9042
:100700007F906F905F903F902F9008956F927F92AF
:100710008F929F92AF92BF92CF92DF92EF92FF9211
:100720000F931F93CF93DF931F92CDB7DEB76C016A
:1007300074E8E72E71E0F72EE0E56E2EE1E07E2E04
:100740008301570188248394912C611118C0D5012D
:10075000ED91FC911197EE0FFF1FEC59FC4F80813A
:100760009181940112960C9002C0220F331F0A94BB
:10077000E2F7820F931F91838083D80119C0613003
:1007800069F5D801ED91FC911197EE0FFF1FEC591F
:10079000FC4F80819181940112960C9002C0220F2F
:1007A000331F0A94E2F7820F931F91838083D50150
:1007B000D896ED91FC91D997EE0FFF1FEC59FC4FA5
:1007C000808191819401DA960C9002C0220F331F30
:1007D0000A94E2F7820F931F91838083C601698395
:1007E0000E946300B4E0AB1AB1080C5F1F4F69812F
:1007F00081E00838180709F0A8CF01E010E0611186
:1008000018C0D701ED91FC911197EE0FFF1FEC5925
:10081000FC4F80819181980112960C9002C0220FAA
:10082000331F0A94E2F7821B930B91838083D301D9
:1008300019C0613069F5D301ED91FC911197EE0F6C
:10084000FF1FEC59FC4F80819181980112960C900A
:1008500002C0220F331F0A94E2F7821B930B91838D
:100860008083D701D896ED91FC91D997EE0FFF1FA9
:10087000EC59FC4F808191819801DA960C9002C06E
:10088000220F331F0A94E2F7821B930B918380831C
:10089000C60169830E946300B4E0EB1AF10884E0AA
:1008A000680E711C6981A8E86A16A1E07A0609F051
:1008B000A6CF0F90DF91CF911F910F91FF90EF90F6
:1008C000DF90CF90BF90AF909F908F907F906F9070
:1008D00008958F929F92AF92BF92CF92DF92EF9244
:1008E000FF920F931F93CF93DF931F92CDB7DEB785
:1008F0007C0124E8C22E21E0D22E00E511E048015F
:10090000AA24A394B12C6130C1F4D601ED91FC91DD
:100910001197EE0FFF1FEC59FC4F808191819501DB
:1009200012960C9002C0220F331F0A94E2F7820F36
:10093000931F91838083D40119C061112DC0D4010C
:10094000ED91FC911197EE0FFF1FEC59FC4F808148
:100950009181950112960C9002C0220F331F0A94C8
:10096000E2F7820F931F91838083D601D896ED9191
:10097000FC91D997EE0FFF1FEC59FC4F80819181BC
:100980009501DA960C9002C0220F331F0A94E2F709
:10099000820F931F91838083C70169830E94630044
:1009A000B4E0CB1AD10884E0880E911C6981A8E8D4
:1009B0008A16A1E09A0609F0A6CF4CEBA42E41E0DE
:1009C000B42ECC24C394D12C613049F5D801ED91DB
:1009D000FC911197EE0FFF1FEC59FC4F8081918124
:1009E000960112960C9002C0220F331F0A94E2F770
:1009F000821B930B91838083D501ED91FC9111971C
:100A0000EE0FFF1FEC59FC4F8081918196011296E9
:100A10000C9002C0220F331F0A94E2F72DC061111F
:100A20002FC0F501F8970190F081E02DEE0FFF1F28
:100A3000EC59FC4F80819181D501D69796010C909D
:100A400002C0220F331F0A94E2F7821B930B91839B
:100A50008083D801D896ED91FC91D997EE0FFF1FB6
:100A6000EC59FC4F808191819601DA960C9002C07E
:100A7000220F331F0A94E2F7821B930B918380832A
:100A8000C70169830E9463000C5F1F4FB4E0AB1A7B
:100A9000B108698184E8A81681E0B80609F094CF0E
:100AA0000F90DF91CF911F910F91FF90EF90DF900A
:100AB000CF90BF90AF909F908F9008957F928F922C
:100AC0009F92AF92BF92CF92DF92EF92FF920F93DD
:100AD0001F93CF93DF93EC01EEE0CE2EFEE0DF2EEE
:100AE0000DE010E0EE24E394F12CBD2CBC186B2D2E
:100AF00070E09801261B370B220F331F220F331F84
:100B0000205B3E4FD9018D919C91DC01AA0FBB1F48
:100B1000AC59BC4F8D919C911197A701F9010280AE
:100B200002C0440F551F0A94E2F7840F951F1196D7
:100B30009C938E93FB01EE0FFF1FEE0FFF1FE857F4
:100B4000FE4FA081B181AA0FBB1FAC59BC4F8D9144
:100B50009C9111979701028002C0220F331F0A94C3
:100B6000E2F7820F931F11969C938E93CE010E9401
:100B70006300B3945EE0B512BACFCA942CEB822E18
:100B800021E0922E30E5A32E31E0B32E712C7C149F
:100B9000B0F5D501ED91FC911197EE0FFF1FEC59C7
:100BA000FC4F80819181970112960C9002C0220F18
:100BB000331F0A94E2F7821B930B91838083970182
:100BC000F401028002C0220F331F0A94E2F7019061
:100BD000F081E02DEE0FFF1FEC59FC4F80819181D9
:100BE000821B930B91838083CE010E9463007394D8
:100BF000F4E08F1A910844E0A40EB11CC8CFC110D4
:100C000074CFDF91CF911F910F91FF90EF90DF9004
:100C1000CF90BF90AF909F908F907F900895AF92AC
:100C2000BF92CF92DF92EF92FF920F931F93CF93D9
:100C3000DF931F92CDB7DEB77C0104E811E030E509
:100C4000A32E31E0B32ECC24C394D12C611118C053
:100C5000D801ED91FC911197EE0FFF1FEC59FC4F5D
:100C600080819181960112960C9002C0220F331F51
:100C70000A94E2F7820F931F91838083D50119C0F4
:100C8000613069F5D501ED91FC911197EE0FFF1FD1
:100C9000EC59FC4F80819181960112960C9002C014
:100CA000220F331F0A94E2F7820F931F91838083F0
:100CB000D801D896ED91FC91D997EE0FFF1FEC5912
:100CC000FC4F808191819601DA960C9002C0220F30
:100CD000331F0A94E2F7820F931F91838083C70129
:100CE00069830E94630004501109B4E0AB0EB11C8B
:100CF000698188E8A81681E0B80609F0A7CF0F90AF
:100D0000DF91CF911F910F91FF90EF90DF90CF90E7
:100D1000BF90AF900895AF92BF92CF92DF92EF92C3
:100D2000FF920F931F93CF937C0100E511E02CEB12
:100D3000A22E21E0B22EC0E0CC24C394D12CD80145
:100D4000ED91FC911197EE0FFF1FEC59FC4F808144
:100D50009181960112960C9002C0220F331F0A94C3
:100D6000E2F7820F931F91838083D501ED91FC916F
:100D7000EE0FFF1FEC59FC4F11821082CD3011F0A5
:100D8000CB3119F4C7010E946300CF5F0C5F1F4F86
:100D9000B4E0AB1AB108CC3191F6CF911F910F910D
:100DA000FF90EF90DF90CF90BF90AF900895CF93DA
:100DB000DF93EC01A0ECB1E041E050E0ED91FC915B
:100DC0001197EE0FFF1FEC59FC4F20813181CA01B2
:100DD00012960C90129702C0880F991F0A94E2F79E
:100DE000280F391F31832083149682E0A831B80779
:100DF00029F7CE010E9463000E945500CE01DF91C9
:100E0000CF910C94B900CF92DF92EF92FF920F93A3
:100E10001F93CF93DF937C01EB016A01122F00E057
:100E2000802F90E08C159D050CF044C00E94550069
:100E30008CE0E816F104E0F5F701E65DFF4F0C9455
:100E4000E308CE010E94B90033C0CE010E94DA004F
:100E50002FC0612FCE010E940F062AC0612FCE0144
:100E60000E94E60025C0612FCE010E94A20120C091
:100E7000612FCE010E9441011BC0612FCE010E9453
:100E8000F60116C0612FCE010E94860311C0612FAA
:100E9000CE010E9469040CC0612FCE010E945E0544
:100EA00007C0CE010E948B0603C0CE010E94D70668
:100EB0000F5FB6CFDF91CF911F910F91FF90EF9011
:100EC000DF90CF90089520E030E090E0682F70E050
:100ED000A3E0B0E0AB01022E02C0559547950A94FD
:100EE000E2F741705527FD01E21BF30B01C0440FEF
:100EF000EA95EAF7940F2F5F3F4F2430310551F701
:100F0000892F08951F920F920FB60F9211242F93DD
:100F10003F934F935F936F937F938F939F93AF9381
:100F2000BF93EF93FF9380916203909163032091AD
:100F300062033091630308974CF481E090E001C0B4
:100F4000880F2A95EAF7809585BB0EC048B32450D8
:100F5000310981E090E002C0880F991F2A95E2F7DD
:100F600080959095842388BBE0916203F0916303A0
:100F7000EE0FFF1FEC59FC4F808191818F700E9412
:100F8000630798B3892B88BBE0916203F0916303F8
:100F9000EE0FFF1FEC59FC4F8081918124E0969564
:100FA00087952A95E1F78BBB80916003909161034F
:100FB0000196909361038093600380916003909108
:100FC00061030297F4F08FEF85BB88B3806F88BB15
:100FD00088B3807F88BB1BBA1092610310926003B4
:100FE00080916203909163039C012F5F3F4F309388
:100FF0006303209362030C9724F010926303109212
:101000006203FF91EF91BF91AF919F918F917F917B
:101010006F915F914F913F912F910F900FBE0F9065
:101020001F9018951F920F920FB60F9211248F9355
:101030008FEF85BB88B3806F88BB8F910F900FBEF9
:101040000F901F90189521E030E0A90102C0440FD5
:10105000551F8A95E2F7CA010895CF93DF93EC01FB
:1010600013BC93B59F3F39F0CE010E94630093B546
:101070009F5F93BDF6CF0E94550013BCDF91CF91C7
:101080000895CF92DF92EF92FF920F931F93CF9329
:10109000DF936C01EB010E94550080E090E00E941C
:1010A000B9008EEF83BDCC0FDD1F00E010E0EE2411
:1010B000E394F12C0C171D0794F493B59E0D93BD8A
:1010C000C6010E94630083B58F3F19F083B581117B
:1010D000F1CFF194E194F1080F5F1F4FEBCF13BCF8
:1010E000DF91CF911F910F91FF90EF90DF90CF9004
:1010F00008958FEF84BB85BB87BB18BA98B3936004
:1011000098BB8ABB1BBA85B58A6485BD89B7806CDC
:1011100089BF13BC7894C0EFD2E08A819B810E9482
:10112000AF00E881F981EE0FFF1FEC59FC4F2081E1
:101130003181820F931F91838083249683E0C03690
:10114000D80759F780ED97E00E9463000E94550090
:10115000C8E8D2E08A819B810E94AF00E881F981D2
:10116000EE0FFF1FEC59FC4F20813181820F931F3E
:1011700091838083249682E0C03FD80759F780EDA1
:1011800097E00E9463000E945500C8E1D2E08A8186
:101190009B810E94AF00E881F981EE0FFF1FEC599F
:1011A000FC4F20813181820F931F9183808324968D
:1011B00082E0C838D80759F780ED97E00E946300B5
:1011C0000E945500A8CFEE0FFF1F0590F491E02D6F
:0611D0000994F894FFCF22
:1011D6000000000000000000000000000000000009
:1011E6000000000004020402FC03040204020000E2
:1011F6003800440084000401080208020401840047
:10120600440038000000FC0000010002000200015A
:10121600FC00000400020000FC03040204020402B5
:101226000000F801040204020402F80100000002B2
:10123600FC0104000400FC030000FC032000200065
:10124600FC030000FC034002400280010000FC0396
:101256000000FC030002FC030002FC030000FC0388
:1012660060009000080104020000F8010402040274
:101276000402F8010000FC0200000000000000006B
:101286000000000000000000000000000000040252
:101296000402FC0304020402000038004400840037
:1012A600040108020802040184004400380000001A
:1012B600FC000001000200020001FC00000000002A
:1012C60006000200070001000800010009000100F5
:1012D6000A0001000B0002000B0003000B000400D3
:1012E6000B0005000A0006000900070008000800B8
:1012F6000700090006000A0005000A0004000900AC
:1013060003000800020007000100060000000500B7
:1013160000000400000003000000020001000100BC
:1013260002000100030001000400010005000200A4
:101336000600030007000200080002000900020080
:101346000A0003000A0004000A000500090006005E
:10135600080007000700080006000900050009004C
:101366000400080003000700020006000100050053
:101376000100040001000300020002000300020055
:101386000400020005000300060002000700010039
:1013960008000000090000000A0001000B0002001E
:1013A6000B0003000B0004000B0005000A000600FA
:1013B60009000700080008000700090006000A00E7
:1013C60005000A00040009000300080002000700E7
:1013D60001000600000005000000040000000300F4
:1013E60000000200010001000200000003000000EE
:1013F60004000100050002000600020007000100CB
:1014060008000100090001000A0002000B000300A9
:101416000B0004000B0005000A0006000900070087
:10142600080008000700090006000A0005000A0077
:10143600040009000300080002000700010006007E
:101446000000050000000400000003000100020087
:101456000200010003000100040001000500020073
:101466000600020007000100080001000900010053
:101476000A0001000B0002000B0003000B00040031
:101486000B0005000A000600090007000800080016
:101496000700090006000A0005000A00040009000A
:1014A6000300080002000700010006000000050016
:1014B600000004000000030000000200010001001B
:1014C6000200010003000100040001000500020003
:00000001FF
